{
  "contractName": "Subscription",
  "abi": [
    {
      "inputs": [
        {
          "internalType": "uint256",
          "name": "_baseValue",
          "type": "uint256"
        },
        {
          "internalType": "uint256",
          "name": "_durationInMinutes",
          "type": "uint256"
        }
      ],
      "stateMutability": "nonpayable",
      "type": "constructor"
    },
    {
      "inputs": [],
      "name": "subscriptionBaseValue",
      "outputs": [
        {
          "internalType": "uint256",
          "name": "",
          "type": "uint256"
        }
      ],
      "stateMutability": "view",
      "type": "function",
      "constant": true
    },
    {
      "inputs": [],
      "name": "subscriptionDuration",
      "outputs": [
        {
          "internalType": "uint256",
          "name": "",
          "type": "uint256"
        }
      ],
      "stateMutability": "view",
      "type": "function",
      "constant": true
    },
    {
      "inputs": [],
      "name": "subscribe",
      "outputs": [],
      "stateMutability": "payable",
      "type": "function",
      "payable": true
    },
    {
      "inputs": [],
      "name": "renew",
      "outputs": [],
      "stateMutability": "payable",
      "type": "function",
      "payable": true
    },
    {
      "inputs": [],
      "name": "getBalance",
      "outputs": [
        {
          "internalType": "uint256",
          "name": "",
          "type": "uint256"
        }
      ],
      "stateMutability": "view",
      "type": "function",
      "constant": true
    },
    {
      "inputs": [],
      "name": "amISubscribed",
      "outputs": [
        {
          "internalType": "bool",
          "name": "",
          "type": "bool"
        }
      ],
      "stateMutability": "view",
      "type": "function",
      "constant": true
    },
    {
      "inputs": [],
      "name": "remove",
      "outputs": [],
      "stateMutability": "nonpayable",
      "type": "function"
    },
    {
      "inputs": [],
      "name": "withdraw",
      "outputs": [],
      "stateMutability": "nonpayable",
      "type": "function"
    }
  ],
  "bytecode": "0x60806040523480156200001157600080fd5b5060405162000e4b38038062000e4b833981810160405281019062000037919062000191565b81600181905550603c816200004d919062000207565b600281905550336000806101000a81548173ffffffffffffffffffffffffffffffffffffffff021916908373ffffffffffffffffffffffffffffffffffffffff16021790555060405180606001604052806001151581526020016000815260200142815250600360008060009054906101000a900473ffffffffffffffffffffffffffffffffffffffff1673ffffffffffffffffffffffffffffffffffffffff1673ffffffffffffffffffffffffffffffffffffffff16815260200190815260200160002060008201518160000160006101000a81548160ff0219169083151502179055506020820151816001015560408201518160020155905050505062000268565b600080fd5b6000819050919050565b6200016b8162000156565b81146200017757600080fd5b50565b6000815190506200018b8162000160565b92915050565b60008060408385031215620001ab57620001aa62000151565b5b6000620001bb858286016200017a565b9250506020620001ce858286016200017a565b9150509250929050565b7f4e487b7100000000000000000000000000000000000000000000000000000000600052601160045260246000fd5b6000620002148262000156565b9150620002218362000156565b9250817fffffffffffffffffffffffffffffffffffffffffffffffffffffffffffffffff04831182151516156200025d576200025c620001d8565b5b828202905092915050565b610bd380620002786000396000f3fe60806040526004361061007b5760003560e01c80637a94a6331161004e5780637a94a633146100f75780638f449a0514610122578063a7f437791461012c578063b7b296e7146101435761007b565b80630d932e701461008057806312065fe01461008a57806319d80219146100b55780633ccfd60b146100e0575b600080fd5b61008861016e565b005b34801561009657600080fd5b5061009f61036c565b6040516100ac9190610882565b60405180910390f35b3480156100c157600080fd5b506100ca610403565b6040516100d791906108b8565b60405180910390f35b3480156100ec57600080fd5b506100f5610462565b005b34801561010357600080fd5b5061010c61059f565b6040516101199190610882565b60405180910390f35b61012a6105a5565b005b34801561013857600080fd5b5061014161079c565b005b34801561014f57600080fd5b50610158610863565b6040516101659190610882565b60405180910390f35b60016000816101b2576040518060400160405280601281526020017f416c7265616479205375627363726962656400000000000000000000000000008152506101e9565b6040518060400160405280600e81526020017f4e6f7420537562736372696265640000000000000000000000000000000000008152505b9050811515600360003373ffffffffffffffffffffffffffffffffffffffff1673ffffffffffffffffffffffffffffffffffffffff16815260200190815260200160002060000160009054906101000a900460ff161515148190610283576040517f08c379a000000000000000000000000000000000000000000000000000000000815260040161027a919061096c565b60405180910390fd5b5060015434146102c8576040517f08c379a00000000000000000000000000000000000000000000000000000000081526004016102bf906109da565b60405180910390fd5b34600360003373ffffffffffffffffffffffffffffffffffffffff1673ffffffffffffffffffffffffffffffffffffffff168152602001908152602001600020600101600082825461031a9190610a29565b9250508190555042600360003373ffffffffffffffffffffffffffffffffffffffff1673ffffffffffffffffffffffffffffffffffffffff168152602001908152602001600020600201819055505050565b60008060009054906101000a900473ffffffffffffffffffffffffffffffffffffffff1673ffffffffffffffffffffffffffffffffffffffff163373ffffffffffffffffffffffffffffffffffffffff16146103fd576040517f08c379a00000000000000000000000000000000000000000000000000000000081526004016103f490610acb565b60405180910390fd5b47905090565b600080600254600360003373ffffffffffffffffffffffffffffffffffffffff1673ffffffffffffffffffffffffffffffffffffffff168152602001908152602001600020600201546104569190610a29565b90508042111591505090565b60008054906101000a900473ffffffffffffffffffffffffffffffffffffffff1673ffffffffffffffffffffffffffffffffffffffff163373ffffffffffffffffffffffffffffffffffffffff16146104f0576040517f08c379a00000000000000000000000000000000000000000000000000000000081526004016104e790610acb565b60405180910390fd5b60003373ffffffffffffffffffffffffffffffffffffffff164760405161051690610b1c565b60006040518083038185875af1925050503d8060008114610553576040519150601f19603f3d011682016040523d82523d6000602084013e610558565b606091505b505090508061059c576040517f08c379a000000000000000000000000000000000000000000000000000000000815260040161059390610b7d565b60405180910390fd5b50565b60025481565b600080816105e8576040518060400160405280601281526020017f416c72656164792053756273637269626564000000000000000000000000000081525061061f565b6040518060400160405280600e81526020017f4e6f7420537562736372696265640000000000000000000000000000000000008152505b9050811515600360003373ffffffffffffffffffffffffffffffffffffffff1673ffffffffffffffffffffffffffffffffffffffff16815260200190815260200160002060000160009054906101000a900460ff1615151481906106b9576040517f08c379a00000000000000000000000000000000000000000000000000000000081526004016106b0919061096c565b60405180910390fd5b5060015434146106fe576040517f08c379a00000000000000000000000000000000000000000000000000000000081526004016106f5906109da565b60405180910390fd5b6000604051806060016040528060011515815260200134815260200142815250905080600360003373ffffffffffffffffffffffffffffffffffffffff1673ffffffffffffffffffffffffffffffffffffffff16815260200190815260200160002060008201518160000160006101000a81548160ff0219169083151502179055506020820151816001015560408201518160020155905050505050565b60008054906101000a900473ffffffffffffffffffffffffffffffffffffffff1673ffffffffffffffffffffffffffffffffffffffff163373ffffffffffffffffffffffffffffffffffffffff161461082a576040517f08c379a000000000000000000000000000000000000000000000000000000000815260040161082190610acb565b60405180910390fd5b60008054906101000a900473ffffffffffffffffffffffffffffffffffffffff1673ffffffffffffffffffffffffffffffffffffffff16ff5b60015481565b6000819050919050565b61087c81610869565b82525050565b60006020820190506108976000830184610873565b92915050565b60008115159050919050565b6108b28161089d565b82525050565b60006020820190506108cd60008301846108a9565b92915050565b600081519050919050565b600082825260208201905092915050565b60005b8381101561090d5780820151818401526020810190506108f2565b8381111561091c576000848401525b50505050565b6000601f19601f8301169050919050565b600061093e826108d3565b61094881856108de565b93506109588185602086016108ef565b61096181610922565b840191505092915050565b600060208201905081810360008301526109868184610933565b905092915050565b7f496e73756666696369656e742066756e64730000000000000000000000000000600082015250565b60006109c46012836108de565b91506109cf8261098e565b602082019050919050565b600060208201905081810360008301526109f3816109b7565b9050919050565b7f4e487b7100000000000000000000000000000000000000000000000000000000600052601160045260246000fd5b6000610a3482610869565b9150610a3f83610869565b9250827fffffffffffffffffffffffffffffffffffffffffffffffffffffffffffffffff03821115610a7457610a736109fa565b5b828201905092915050565b7f4e6f74204f776e65720000000000000000000000000000000000000000000000600082015250565b6000610ab56009836108de565b9150610ac082610a7f565b602082019050919050565b60006020820190508181036000830152610ae481610aa8565b9050919050565b600081905092915050565b50565b6000610b06600083610aeb565b9150610b1182610af6565b600082019050919050565b6000610b2782610af9565b9150819050919050565b7f4661696c656420746f2073656e64204574686572000000000000000000000000600082015250565b6000610b676014836108de565b9150610b7282610b31565b602082019050919050565b60006020820190508181036000830152610b9681610b5a565b905091905056fea264697066735822122051a79eb660b2f0c450f28c981ce6c5aeba9853a33ac0cb1145fe898eb5d6035864736f6c634300080a0033",
  "immutableReferences": {},
  "source": "// SPDX-License-Identifier: GPL-3.0\r\npragma solidity ^0.8.10;\r\n\r\ncontract Subscription {\r\n    struct Subscriber {\r\n        bool subscribed;\r\n        uint256 payedAmount;\r\n        uint256 subscribedAt;\r\n    }\r\n\r\n    address private owner;\r\n    uint256 public subscriptionBaseValue;\r\n    uint256 public subscriptionDuration;\r\n    mapping(address => Subscriber) private subscribersList;\r\n\r\n    constructor(uint256 _baseValue, uint256 _durationInMinutes) {\r\n        subscriptionBaseValue = _baseValue;\r\n        subscriptionDuration = _durationInMinutes * 1 minutes;\r\n        owner = msg.sender;\r\n        subscribersList[owner] = Subscriber(true, 0, block.timestamp);\r\n    }\r\n\r\n    modifier onlyOwner() {\r\n        require(msg.sender == owner, \"Not Owner\");\r\n        _;\r\n    }\r\n\r\n    modifier isSubscribed(bool expectedState) {\r\n        string memory message = expectedState ? \"Not Subscribed\" : \"Already Subscribed\";\r\n        require(subscribersList[msg.sender].subscribed == expectedState, message);\r\n        _;\r\n    }\r\n\r\n    modifier exactAmount() {\r\n        require(msg.value == subscriptionBaseValue, \"Insufficient funds\");\r\n        _;\r\n    }\r\n\r\n    function subscribe() external payable isSubscribed(false) exactAmount {\r\n        Subscriber memory newSubscriber = Subscriber(true, msg.value, block.timestamp);\r\n        subscribersList[msg.sender] = newSubscriber;\r\n    }\r\n\r\n    function renew() external payable isSubscribed(true) exactAmount {\r\n        subscribersList[msg.sender].payedAmount += msg.value;\r\n        subscribersList[msg.sender].subscribedAt = block.timestamp;\r\n    }\r\n\r\n    function getBalance() external view onlyOwner returns (uint256) {\r\n        return address(this).balance;\r\n    }\r\n\r\n    function amISubscribed() external view returns (bool) {\r\n        uint256 limitDate = subscribersList[msg.sender].subscribedAt + subscriptionDuration;\r\n        return block.timestamp <= limitDate;\r\n    }\r\n\r\n    function remove() external onlyOwner {\r\n        selfdestruct(payable(owner));\r\n    }\r\n\r\n    function withdraw() external onlyOwner {\r\n        (bool sent, ) = msg.sender.call{value: address(this).balance}(\"\");\r\n        require(sent, \"Failed to send Ether\");\r\n    }\r\n}\r\n",
  "sourcePath": "C:\\dev\\contracts\\projects\\Subscription\\contracts\\Subscription.sol",
  "compiler": {
    "name": "solc",
    "version": "0.8.10+commit.fc410830.Emscripten.clang"
  },
  "schemaVersion": "3.4.3",
  "updatedAt": "2021-12-08T21:38:18.390Z",
  "networkType": "ethereum",
  "devdoc": {
    "kind": "dev",
    "methods": {},
    "version": 1
  },
  "userdoc": {
    "kind": "user",
    "methods": {},
    "version": 1
  }
}