{
  "contractName": "Subscription",
  "abi": [
    {
      "inputs": [
        {
          "internalType": "uint256",
          "name": "_baseValue",
          "type": "uint256"
        },
        {
          "internalType": "uint256",
          "name": "_durationInMinutes",
          "type": "uint256"
        }
      ],
      "stateMutability": "nonpayable",
      "type": "constructor"
    },
    {
      "anonymous": false,
      "inputs": [
        {
          "indexed": true,
          "internalType": "address",
          "name": "from",
          "type": "address"
        },
        {
          "indexed": false,
          "internalType": "uint256",
          "name": "subscribedAt",
          "type": "uint256"
        }
      ],
      "name": "SubscriptionSuccess",
      "type": "event"
    },
    {
      "inputs": [],
      "name": "owner",
      "outputs": [
        {
          "internalType": "address",
          "name": "",
          "type": "address"
        }
      ],
      "stateMutability": "view",
      "type": "function",
      "constant": true
    },
    {
      "inputs": [],
      "name": "subscriptionBaseValue",
      "outputs": [
        {
          "internalType": "uint256",
          "name": "",
          "type": "uint256"
        }
      ],
      "stateMutability": "view",
      "type": "function",
      "constant": true
    },
    {
      "inputs": [],
      "name": "subscriptionDuration",
      "outputs": [
        {
          "internalType": "uint256",
          "name": "",
          "type": "uint256"
        }
      ],
      "stateMutability": "view",
      "type": "function",
      "constant": true
    },
    {
      "inputs": [],
      "name": "subscribe",
      "outputs": [],
      "stateMutability": "payable",
      "type": "function",
      "payable": true
    },
    {
      "inputs": [],
      "name": "getBalance",
      "outputs": [
        {
          "internalType": "uint256",
          "name": "",
          "type": "uint256"
        }
      ],
      "stateMutability": "view",
      "type": "function",
      "constant": true
    },
    {
      "inputs": [],
      "name": "isSubscriptionValid",
      "outputs": [
        {
          "internalType": "bool",
          "name": "",
          "type": "bool"
        }
      ],
      "stateMutability": "view",
      "type": "function",
      "constant": true
    },
    {
      "inputs": [],
      "name": "remove",
      "outputs": [],
      "stateMutability": "nonpayable",
      "type": "function"
    },
    {
      "inputs": [],
      "name": "withdraw",
      "outputs": [],
      "stateMutability": "nonpayable",
      "type": "function"
    }
  ],
  "bytecode": "0x60806040523480156200001157600080fd5b5060405162000e5b38038062000e5b833981810160405281019062000037919062000191565b81600181905550603c816200004d919062000207565b600281905550336000806101000a81548173ffffffffffffffffffffffffffffffffffffffff021916908373ffffffffffffffffffffffffffffffffffffffff16021790555060405180606001604052806001151581526020016000815260200142815250600360008060009054906101000a900473ffffffffffffffffffffffffffffffffffffffff1673ffffffffffffffffffffffffffffffffffffffff1673ffffffffffffffffffffffffffffffffffffffff16815260200190815260200160002060008201518160000160006101000a81548160ff0219169083151502179055506020820151816001015560408201518160020155905050505062000268565b600080fd5b6000819050919050565b6200016b8162000156565b81146200017757600080fd5b50565b6000815190506200018b8162000160565b92915050565b60008060408385031215620001ab57620001aa62000151565b5b6000620001bb858286016200017a565b9250506020620001ce858286016200017a565b9150509250929050565b7f4e487b7100000000000000000000000000000000000000000000000000000000600052601160045260246000fd5b6000620002148262000156565b9150620002218362000156565b9250817fffffffffffffffffffffffffffffffffffffffffffffffffffffffffffffffff04831182151516156200025d576200025c620001d8565b5b828202905092915050565b610be380620002786000396000f3fe60806040526004361061007b5760003560e01c80638da5cb5b1161004e5780638da5cb5b146101185780638f449a0514610143578063a7f437791461014d578063b7b296e7146101645761007b565b806312065fe0146100805780633ccfd60b146100ab57806366417788146100c25780637a94a633146100ed575b600080fd5b34801561008c57600080fd5b5061009561018f565b6040516100a29190610816565b60405180910390f35b3480156100b757600080fd5b506100c0610226565b005b3480156100ce57600080fd5b506100d7610363565b6040516100e4919061084c565b60405180910390f35b3480156100f957600080fd5b50610102610427565b60405161010f9190610816565b60405180910390f35b34801561012457600080fd5b5061012d61042d565b60405161013a91906108a8565b60405180910390f35b61014b610451565b005b34801561015957600080fd5b50610162610730565b005b34801561017057600080fd5b506101796107f7565b6040516101869190610816565b60405180910390f35b60008060009054906101000a900473ffffffffffffffffffffffffffffffffffffffff1673ffffffffffffffffffffffffffffffffffffffff163373ffffffffffffffffffffffffffffffffffffffff1614610220576040517f08c379a000000000000000000000000000000000000000000000000000000000815260040161021790610920565b60405180910390fd5b47905090565b60008054906101000a900473ffffffffffffffffffffffffffffffffffffffff1673ffffffffffffffffffffffffffffffffffffffff163373ffffffffffffffffffffffffffffffffffffffff16146102b4576040517f08c379a00000000000000000000000000000000000000000000000000000000081526004016102ab90610920565b60405180910390fd5b60003373ffffffffffffffffffffffffffffffffffffffff16476040516102da90610971565b60006040518083038185875af1925050503d8060008114610317576040519150601f19603f3d011682016040523d82523d6000602084013e61031c565b606091505b5050905080610360576040517f08c379a0000000000000000000000000000000000000000000000000000000008152600401610357906109d2565b60405180910390fd5b50565b60008060011515600360003373ffffffffffffffffffffffffffffffffffffffff1673ffffffffffffffffffffffffffffffffffffffff16815260200190815260200160002060000160009054906101000a900460ff1615151490506000600254600360003373ffffffffffffffffffffffffffffffffffffffff1673ffffffffffffffffffffffffffffffffffffffff168152602001908152602001600020600201546104119190610a21565b90508180156104205750804211155b9250505090565b60025481565b60008054906101000a900473ffffffffffffffffffffffffffffffffffffffff1681565b6001543414610495576040517f08c379a000000000000000000000000000000000000000000000000000000000815260040161048c90610ac3565b60405180910390fd5b60011515600360003373ffffffffffffffffffffffffffffffffffffffff1673ffffffffffffffffffffffffffffffffffffffff16815260200190815260200160002060000160009054906101000a900460ff1615151415610645573073ffffffffffffffffffffffffffffffffffffffff1663664177886040518163ffffffff1660e01b8152600401602060405180830381865afa15801561053c573d6000803e3d6000fd5b505050506040513d601f19601f820116820180604052508101906105609190610b14565b156105a0576040517f08c379a000000000000000000000000000000000000000000000000000000000815260040161059790610b8d565b60405180910390fd5b34600360003373ffffffffffffffffffffffffffffffffffffffff1673ffffffffffffffffffffffffffffffffffffffff16815260200190815260200160002060010160008282546105f29190610a21565b9250508190555042600360003373ffffffffffffffffffffffffffffffffffffffff1673ffffffffffffffffffffffffffffffffffffffff168152602001908152602001600020600201819055506106e0565b6000604051806060016040528060011515815260200134815260200142815250905080600360003373ffffffffffffffffffffffffffffffffffffffff1673ffffffffffffffffffffffffffffffffffffffff16815260200190815260200160002060008201518160000160006101000a81548160ff0219169083151502179055506020820151816001015560408201518160020155905050505b3373ffffffffffffffffffffffffffffffffffffffff167feab17a384ff1450115976264ddf651de1856a5ff5b8c2c221345510563e466fe426040516107269190610816565b60405180910390a2565b60008054906101000a900473ffffffffffffffffffffffffffffffffffffffff1673ffffffffffffffffffffffffffffffffffffffff163373ffffffffffffffffffffffffffffffffffffffff16146107be576040517f08c379a00000000000000000000000000000000000000000000000000000000081526004016107b590610920565b60405180910390fd5b60008054906101000a900473ffffffffffffffffffffffffffffffffffffffff1673ffffffffffffffffffffffffffffffffffffffff16ff5b60015481565b6000819050919050565b610810816107fd565b82525050565b600060208201905061082b6000830184610807565b92915050565b60008115159050919050565b61084681610831565b82525050565b6000602082019050610861600083018461083d565b92915050565b600073ffffffffffffffffffffffffffffffffffffffff82169050919050565b600061089282610867565b9050919050565b6108a281610887565b82525050565b60006020820190506108bd6000830184610899565b92915050565b600082825260208201905092915050565b7f4e6f74204f776e65720000000000000000000000000000000000000000000000600082015250565b600061090a6009836108c3565b9150610915826108d4565b602082019050919050565b60006020820190508181036000830152610939816108fd565b9050919050565b600081905092915050565b50565b600061095b600083610940565b91506109668261094b565b600082019050919050565b600061097c8261094e565b9150819050919050565b7f4661696c656420746f2073656e64204574686572000000000000000000000000600082015250565b60006109bc6014836108c3565b91506109c782610986565b602082019050919050565b600060208201905081810360008301526109eb816109af565b9050919050565b7f4e487b7100000000000000000000000000000000000000000000000000000000600052601160045260246000fd5b6000610a2c826107fd565b9150610a37836107fd565b9250827fffffffffffffffffffffffffffffffffffffffffffffffffffffffffffffffff03821115610a6c57610a6b6109f2565b5b828201905092915050565b7f496e73756666696369656e742066756e64730000000000000000000000000000600082015250565b6000610aad6012836108c3565b9150610ab882610a77565b602082019050919050565b60006020820190508181036000830152610adc81610aa0565b9050919050565b600080fd5b610af181610831565b8114610afc57600080fd5b50565b600081519050610b0e81610ae8565b92915050565b600060208284031215610b2a57610b29610ae3565b5b6000610b3884828501610aff565b91505092915050565b7f537562736372697074696f6e206973207374696c6c2061637469766500000000600082015250565b6000610b77601c836108c3565b9150610b8282610b41565b602082019050919050565b60006020820190508181036000830152610ba681610b6a565b905091905056fea2646970667358221220e3af720cfcceda6a6c2951a3e58df4a2c44520914b4bc0e3c62f9bef56990c4964736f6c634300080a0033",
  "immutableReferences": {},
  "source": "// SPDX-License-Identifier: GPL-3.0\r\npragma solidity ^0.8.10;\r\n\r\ncontract Subscription {\r\n    struct Subscriber {\r\n        bool subscribed;\r\n        uint256 payedAmount;\r\n        uint256 subscribedAt;\r\n    }\r\n\r\n    event SubscriptionSuccess(address indexed from, uint256 subscribedAt);\r\n\r\n    address public owner;\r\n    uint256 public subscriptionBaseValue;\r\n    uint256 public subscriptionDuration;\r\n    mapping(address => Subscriber) private subscribersList;\r\n\r\n    constructor(uint256 _baseValue, uint256 _durationInMinutes) {\r\n        subscriptionBaseValue = _baseValue;\r\n        subscriptionDuration = _durationInMinutes * 1 minutes;\r\n        owner = msg.sender;\r\n        subscribersList[owner] = Subscriber(true, 0, block.timestamp);\r\n    }\r\n\r\n    modifier onlyOwner() {\r\n        require(msg.sender == owner, \"Not Owner\");\r\n        _;\r\n    }\r\n\r\n    modifier exactAmount() {\r\n        require(msg.value == subscriptionBaseValue, \"Insufficient funds\");\r\n        _;\r\n    }\r\n\r\n    function subscribe() external payable exactAmount {\r\n        if (subscribersList[msg.sender].subscribed == true) {\r\n            require(!this.isSubscriptionValid(), \"Subscription is still active\");\r\n            subscribersList[msg.sender].payedAmount += msg.value;\r\n            subscribersList[msg.sender].subscribedAt = block.timestamp;\r\n        } else {\r\n            Subscriber memory newSubscriber = Subscriber(true, msg.value, block.timestamp);\r\n            subscribersList[msg.sender] = newSubscriber;\r\n        }\r\n        emit SubscriptionSuccess(msg.sender, block.timestamp);\r\n    }\r\n\r\n    function getBalance() external view onlyOwner returns (uint256) {\r\n        return address(this).balance;\r\n    }\r\n\r\n    function isSubscriptionValid() external view returns (bool) {\r\n        bool isSubscribed = subscribersList[msg.sender].subscribed == true;\r\n        uint256 limitDate = subscribersList[msg.sender].subscribedAt + subscriptionDuration;\r\n        return isSubscribed && block.timestamp <= limitDate;\r\n    }\r\n\r\n    function remove() external onlyOwner {\r\n        selfdestruct(payable(owner));\r\n    }\r\n\r\n    function withdraw() external onlyOwner {\r\n        (bool sent, ) = msg.sender.call{value: address(this).balance}(\"\");\r\n        require(sent, \"Failed to send Ether\");\r\n    }\r\n}\r\n",
  "sourcePath": "C:\\dev\\contracts\\projects\\Subscription\\contracts\\Subscription.sol",
  "compiler": {
    "name": "solc",
    "version": "0.8.10+commit.fc410830.Emscripten.clang"
  },
  "schemaVersion": "3.4.3",
  "updatedAt": "2021-12-14T17:06:19.182Z",
  "networkType": "ethereum",
  "devdoc": {
    "kind": "dev",
    "methods": {},
    "version": 1
  },
  "userdoc": {
    "kind": "user",
    "methods": {},
    "version": 1
  }
}