{
  "contractName": "Subscription",
  "abi": [
    {
      "inputs": [
        {
          "internalType": "uint256",
          "name": "_baseValue",
          "type": "uint256"
        },
        {
          "internalType": "uint256",
          "name": "_durationInMinutes",
          "type": "uint256"
        }
      ],
      "stateMutability": "nonpayable",
      "type": "constructor"
    },
    {
      "inputs": [],
      "name": "owner",
      "outputs": [
        {
          "internalType": "address",
          "name": "",
          "type": "address"
        }
      ],
      "stateMutability": "view",
      "type": "function",
      "constant": true
    },
    {
      "inputs": [],
      "name": "subscriptionBaseValue",
      "outputs": [
        {
          "internalType": "uint256",
          "name": "",
          "type": "uint256"
        }
      ],
      "stateMutability": "view",
      "type": "function",
      "constant": true
    },
    {
      "inputs": [],
      "name": "subscriptionDuration",
      "outputs": [
        {
          "internalType": "uint256",
          "name": "",
          "type": "uint256"
        }
      ],
      "stateMutability": "view",
      "type": "function",
      "constant": true
    },
    {
      "inputs": [],
      "name": "subscribe",
      "outputs": [],
      "stateMutability": "payable",
      "type": "function",
      "payable": true
    },
    {
      "inputs": [],
      "name": "renew",
      "outputs": [],
      "stateMutability": "payable",
      "type": "function",
      "payable": true
    },
    {
      "inputs": [],
      "name": "getBalance",
      "outputs": [
        {
          "internalType": "uint256",
          "name": "",
          "type": "uint256"
        }
      ],
      "stateMutability": "view",
      "type": "function",
      "constant": true
    },
    {
      "inputs": [],
      "name": "amISubscribed",
      "outputs": [
        {
          "internalType": "bool",
          "name": "",
          "type": "bool"
        }
      ],
      "stateMutability": "view",
      "type": "function",
      "constant": true
    },
    {
      "inputs": [],
      "name": "remove",
      "outputs": [],
      "stateMutability": "nonpayable",
      "type": "function"
    },
    {
      "inputs": [],
      "name": "withdraw",
      "outputs": [],
      "stateMutability": "nonpayable",
      "type": "function"
    }
  ],
  "bytecode": "0x60806040523480156200001157600080fd5b5060405162000f0138038062000f01833981810160405281019062000037919062000191565b81600181905550603c816200004d919062000207565b600281905550336000806101000a81548173ffffffffffffffffffffffffffffffffffffffff021916908373ffffffffffffffffffffffffffffffffffffffff16021790555060405180606001604052806001151581526020016000815260200142815250600360008060009054906101000a900473ffffffffffffffffffffffffffffffffffffffff1673ffffffffffffffffffffffffffffffffffffffff1673ffffffffffffffffffffffffffffffffffffffff16815260200190815260200160002060008201518160000160006101000a81548160ff0219169083151502179055506020820151816001015560408201518160020155905050505062000268565b600080fd5b6000819050919050565b6200016b8162000156565b81146200017757600080fd5b50565b6000815190506200018b8162000160565b92915050565b60008060408385031215620001ab57620001aa62000151565b5b6000620001bb858286016200017a565b9250506020620001ce858286016200017a565b9150509250929050565b7f4e487b7100000000000000000000000000000000000000000000000000000000600052601160045260246000fd5b6000620002148262000156565b9150620002218362000156565b9250817fffffffffffffffffffffffffffffffffffffffffffffffffffffffffffffffff04831182151516156200025d576200025c620001d8565b5b828202905092915050565b610c8980620002786000396000f3fe6080604052600436106100865760003560e01c80637a94a633116100595780637a94a633146101025780638da5cb5b1461012d5780638f449a0514610158578063a7f4377914610162578063b7b296e71461017957610086565b80630d932e701461008b57806312065fe01461009557806319d80219146100c05780633ccfd60b146100eb575b600080fd5b6100936101a4565b005b3480156100a157600080fd5b506100aa6103a2565b6040516100b791906108dc565b60405180910390f35b3480156100cc57600080fd5b506100d5610439565b6040516100e29190610912565b60405180910390f35b3480156100f757600080fd5b50610100610498565b005b34801561010e57600080fd5b506101176105d5565b60405161012491906108dc565b60405180910390f35b34801561013957600080fd5b506101426105db565b60405161014f919061096e565b60405180910390f35b6101606105ff565b005b34801561016e57600080fd5b506101776107f6565b005b34801561018557600080fd5b5061018e6108bd565b60405161019b91906108dc565b60405180910390f35b60016000816101e8576040518060400160405280601281526020017f416c72656164792053756273637269626564000000000000000000000000000081525061021f565b6040518060400160405280600e81526020017f4e6f7420537562736372696265640000000000000000000000000000000000008152505b9050811515600360003373ffffffffffffffffffffffffffffffffffffffff1673ffffffffffffffffffffffffffffffffffffffff16815260200190815260200160002060000160009054906101000a900460ff1615151481906102b9576040517f08c379a00000000000000000000000000000000000000000000000000000000081526004016102b09190610a22565b60405180910390fd5b5060015434146102fe576040517f08c379a00000000000000000000000000000000000000000000000000000000081526004016102f590610a90565b60405180910390fd5b34600360003373ffffffffffffffffffffffffffffffffffffffff1673ffffffffffffffffffffffffffffffffffffffff16815260200190815260200160002060010160008282546103509190610adf565b9250508190555042600360003373ffffffffffffffffffffffffffffffffffffffff1673ffffffffffffffffffffffffffffffffffffffff168152602001908152602001600020600201819055505050565b60008060009054906101000a900473ffffffffffffffffffffffffffffffffffffffff1673ffffffffffffffffffffffffffffffffffffffff163373ffffffffffffffffffffffffffffffffffffffff1614610433576040517f08c379a000000000000000000000000000000000000000000000000000000000815260040161042a90610b81565b60405180910390fd5b47905090565b600080600254600360003373ffffffffffffffffffffffffffffffffffffffff1673ffffffffffffffffffffffffffffffffffffffff1681526020019081526020016000206002015461048c9190610adf565b90508042111591505090565b60008054906101000a900473ffffffffffffffffffffffffffffffffffffffff1673ffffffffffffffffffffffffffffffffffffffff163373ffffffffffffffffffffffffffffffffffffffff1614610526576040517f08c379a000000000000000000000000000000000000000000000000000000000815260040161051d90610b81565b60405180910390fd5b60003373ffffffffffffffffffffffffffffffffffffffff164760405161054c90610bd2565b60006040518083038185875af1925050503d8060008114610589576040519150601f19603f3d011682016040523d82523d6000602084013e61058e565b606091505b50509050806105d2576040517f08c379a00000000000000000000000000000000000000000000000000000000081526004016105c990610c33565b60405180910390fd5b50565b60025481565b60008054906101000a900473ffffffffffffffffffffffffffffffffffffffff1681565b60008081610642576040518060400160405280601281526020017f416c726561647920537562736372696265640000000000000000000000000000815250610679565b6040518060400160405280600e81526020017f4e6f7420537562736372696265640000000000000000000000000000000000008152505b9050811515600360003373ffffffffffffffffffffffffffffffffffffffff1673ffffffffffffffffffffffffffffffffffffffff16815260200190815260200160002060000160009054906101000a900460ff161515148190610713576040517f08c379a000000000000000000000000000000000000000000000000000000000815260040161070a9190610a22565b60405180910390fd5b506001543414610758576040517f08c379a000000000000000000000000000000000000000000000000000000000815260040161074f90610a90565b60405180910390fd5b6000604051806060016040528060011515815260200134815260200142815250905080600360003373ffffffffffffffffffffffffffffffffffffffff1673ffffffffffffffffffffffffffffffffffffffff16815260200190815260200160002060008201518160000160006101000a81548160ff0219169083151502179055506020820151816001015560408201518160020155905050505050565b60008054906101000a900473ffffffffffffffffffffffffffffffffffffffff1673ffffffffffffffffffffffffffffffffffffffff163373ffffffffffffffffffffffffffffffffffffffff1614610884576040517f08c379a000000000000000000000000000000000000000000000000000000000815260040161087b90610b81565b60405180910390fd5b60008054906101000a900473ffffffffffffffffffffffffffffffffffffffff1673ffffffffffffffffffffffffffffffffffffffff16ff5b60015481565b6000819050919050565b6108d6816108c3565b82525050565b60006020820190506108f160008301846108cd565b92915050565b60008115159050919050565b61090c816108f7565b82525050565b60006020820190506109276000830184610903565b92915050565b600073ffffffffffffffffffffffffffffffffffffffff82169050919050565b60006109588261092d565b9050919050565b6109688161094d565b82525050565b6000602082019050610983600083018461095f565b92915050565b600081519050919050565b600082825260208201905092915050565b60005b838110156109c35780820151818401526020810190506109a8565b838111156109d2576000848401525b50505050565b6000601f19601f8301169050919050565b60006109f482610989565b6109fe8185610994565b9350610a0e8185602086016109a5565b610a17816109d8565b840191505092915050565b60006020820190508181036000830152610a3c81846109e9565b905092915050565b7f496e73756666696369656e742066756e64730000000000000000000000000000600082015250565b6000610a7a601283610994565b9150610a8582610a44565b602082019050919050565b60006020820190508181036000830152610aa981610a6d565b9050919050565b7f4e487b7100000000000000000000000000000000000000000000000000000000600052601160045260246000fd5b6000610aea826108c3565b9150610af5836108c3565b9250827fffffffffffffffffffffffffffffffffffffffffffffffffffffffffffffffff03821115610b2a57610b29610ab0565b5b828201905092915050565b7f4e6f74204f776e65720000000000000000000000000000000000000000000000600082015250565b6000610b6b600983610994565b9150610b7682610b35565b602082019050919050565b60006020820190508181036000830152610b9a81610b5e565b9050919050565b600081905092915050565b50565b6000610bbc600083610ba1565b9150610bc782610bac565b600082019050919050565b6000610bdd82610baf565b9150819050919050565b7f4661696c656420746f2073656e64204574686572000000000000000000000000600082015250565b6000610c1d601483610994565b9150610c2882610be7565b602082019050919050565b60006020820190508181036000830152610c4c81610c10565b905091905056fea26469706673582212209b4bfb38b711afb86d361e9ff17ee11d93a984a012d3702aec48554ffab9b39e64736f6c634300080a0033",
  "immutableReferences": {},
  "source": "// SPDX-License-Identifier: GPL-3.0\r\npragma solidity ^0.8.10;\r\n\r\ncontract Subscription {\r\n    struct Subscriber {\r\n        bool subscribed;\r\n        uint256 payedAmount;\r\n        uint256 subscribedAt;\r\n    }\r\n\r\n    address public owner;\r\n    uint256 public subscriptionBaseValue;\r\n    uint256 public subscriptionDuration;\r\n    mapping(address => Subscriber) private subscribersList;\r\n\r\n    constructor(uint256 _baseValue, uint256 _durationInMinutes) {\r\n        subscriptionBaseValue = _baseValue;\r\n        subscriptionDuration = _durationInMinutes * 1 minutes;\r\n        owner = msg.sender;\r\n        subscribersList[owner] = Subscriber(true, 0, block.timestamp);\r\n    }\r\n\r\n    modifier onlyOwner() {\r\n        require(msg.sender == owner, \"Not Owner\");\r\n        _;\r\n    }\r\n\r\n    modifier isSubscribed(bool expectedState) {\r\n        string memory message = expectedState ? \"Not Subscribed\" : \"Already Subscribed\";\r\n        require(subscribersList[msg.sender].subscribed == expectedState, message);\r\n        _;\r\n    }\r\n\r\n    modifier exactAmount() {\r\n        require(msg.value == subscriptionBaseValue, \"Insufficient funds\");\r\n        _;\r\n    }\r\n\r\n    function subscribe() external payable isSubscribed(false) exactAmount {\r\n        Subscriber memory newSubscriber = Subscriber(true, msg.value, block.timestamp);\r\n        subscribersList[msg.sender] = newSubscriber;\r\n    }\r\n\r\n    function renew() external payable isSubscribed(true) exactAmount {\r\n        subscribersList[msg.sender].payedAmount += msg.value;\r\n        subscribersList[msg.sender].subscribedAt = block.timestamp;\r\n    }\r\n\r\n    function getBalance() external view onlyOwner returns (uint256) {\r\n        return address(this).balance;\r\n    }\r\n\r\n    function amISubscribed() external view returns (bool) {\r\n        uint256 limitDate = subscribersList[msg.sender].subscribedAt + subscriptionDuration;\r\n        return block.timestamp <= limitDate;\r\n    }\r\n\r\n    function remove() external onlyOwner {\r\n        selfdestruct(payable(owner));\r\n    }\r\n\r\n    function withdraw() external onlyOwner {\r\n        (bool sent, ) = msg.sender.call{value: address(this).balance}(\"\");\r\n        require(sent, \"Failed to send Ether\");\r\n    }\r\n}\r\n",
  "sourcePath": "C:\\dev\\contracts\\projects\\Subscription\\contracts\\Subscription.sol",
  "compiler": {
    "name": "solc",
    "version": "0.8.10+commit.fc410830.Emscripten.clang"
  },
  "schemaVersion": "3.4.3",
  "updatedAt": "2021-12-13T17:35:19.820Z",
  "networkType": "ethereum",
  "devdoc": {
    "kind": "dev",
    "methods": {},
    "version": 1
  },
  "userdoc": {
    "kind": "user",
    "methods": {},
    "version": 1
  }
}