{
  "contractName": "Subscription",
  "abi": [
    {
      "inputs": [
        {
          "internalType": "uint256",
          "name": "_baseValue",
          "type": "uint256"
        },
        {
          "internalType": "uint256",
          "name": "_durationInMinutes",
          "type": "uint256"
        }
      ],
      "stateMutability": "nonpayable",
      "type": "constructor"
    },
    {
      "anonymous": false,
      "inputs": [
        {
          "indexed": true,
          "internalType": "address",
          "name": "from",
          "type": "address"
        },
        {
          "indexed": false,
          "internalType": "uint256",
          "name": "subscribedAt",
          "type": "uint256"
        }
      ],
      "name": "SubscriptionSuccess",
      "type": "event"
    },
    {
      "inputs": [],
      "name": "owner",
      "outputs": [
        {
          "internalType": "address",
          "name": "",
          "type": "address"
        }
      ],
      "stateMutability": "view",
      "type": "function",
      "constant": true
    },
    {
      "inputs": [
        {
          "internalType": "uint256",
          "name": "",
          "type": "uint256"
        }
      ],
      "name": "subscribers",
      "outputs": [
        {
          "internalType": "address",
          "name": "",
          "type": "address"
        }
      ],
      "stateMutability": "view",
      "type": "function",
      "constant": true
    },
    {
      "inputs": [],
      "name": "subscriptionBaseValue",
      "outputs": [
        {
          "internalType": "uint256",
          "name": "",
          "type": "uint256"
        }
      ],
      "stateMutability": "view",
      "type": "function",
      "constant": true
    },
    {
      "inputs": [],
      "name": "subscriptionDuration",
      "outputs": [
        {
          "internalType": "uint256",
          "name": "",
          "type": "uint256"
        }
      ],
      "stateMutability": "view",
      "type": "function",
      "constant": true
    },
    {
      "inputs": [],
      "name": "subscribe",
      "outputs": [],
      "stateMutability": "payable",
      "type": "function",
      "payable": true
    },
    {
      "inputs": [
        {
          "internalType": "address",
          "name": "subscriberAddress",
          "type": "address"
        }
      ],
      "name": "getDataOfSubscriber",
      "outputs": [
        {
          "components": [
            {
              "internalType": "bool",
              "name": "subscribed",
              "type": "bool"
            },
            {
              "internalType": "uint256",
              "name": "payedAmount",
              "type": "uint256"
            },
            {
              "internalType": "uint256",
              "name": "subscribedAt",
              "type": "uint256"
            }
          ],
          "internalType": "struct Subscription.Subscriber",
          "name": "data",
          "type": "tuple"
        }
      ],
      "stateMutability": "view",
      "type": "function",
      "constant": true
    },
    {
      "inputs": [],
      "name": "getSubscriptionData",
      "outputs": [
        {
          "components": [
            {
              "internalType": "bool",
              "name": "subscribed",
              "type": "bool"
            },
            {
              "internalType": "uint256",
              "name": "payedAmount",
              "type": "uint256"
            },
            {
              "internalType": "uint256",
              "name": "subscribedAt",
              "type": "uint256"
            }
          ],
          "internalType": "struct Subscription.Subscriber",
          "name": "data",
          "type": "tuple"
        }
      ],
      "stateMutability": "view",
      "type": "function",
      "constant": true
    },
    {
      "inputs": [],
      "name": "getAllSubscribers",
      "outputs": [
        {
          "internalType": "address[]",
          "name": "",
          "type": "address[]"
        }
      ],
      "stateMutability": "view",
      "type": "function",
      "constant": true
    },
    {
      "inputs": [],
      "name": "getBalance",
      "outputs": [
        {
          "internalType": "uint256",
          "name": "",
          "type": "uint256"
        }
      ],
      "stateMutability": "view",
      "type": "function",
      "constant": true
    },
    {
      "inputs": [],
      "name": "remove",
      "outputs": [],
      "stateMutability": "nonpayable",
      "type": "function"
    },
    {
      "inputs": [],
      "name": "withdraw",
      "outputs": [],
      "stateMutability": "nonpayable",
      "type": "function"
    }
  ],
  "bytecode": "0x60806040523480156200001157600080fd5b506040516200141438038062001414833981810160405281019062000037919062000191565b81600181905550603c816200004d919062000207565b600281905550336000806101000a81548173ffffffffffffffffffffffffffffffffffffffff021916908373ffffffffffffffffffffffffffffffffffffffff16021790555060405180606001604052806001151581526020016000815260200142815250600460008060009054906101000a900473ffffffffffffffffffffffffffffffffffffffff1673ffffffffffffffffffffffffffffffffffffffff1673ffffffffffffffffffffffffffffffffffffffff16815260200190815260200160002060008201518160000160006101000a81548160ff0219169083151502179055506020820151816001015560408201518160020155905050505062000268565b600080fd5b6000819050919050565b6200016b8162000156565b81146200017757600080fd5b50565b6000815190506200018b8162000160565b92915050565b60008060408385031215620001ab57620001aa62000151565b5b6000620001bb858286016200017a565b9250506020620001ce858286016200017a565b9150509250929050565b7f4e487b7100000000000000000000000000000000000000000000000000000000600052601160045260246000fd5b6000620002148262000156565b9150620002218362000156565b9250817fffffffffffffffffffffffffffffffffffffffffffffffffffffffffffffffff04831182151516156200025d576200025c620001d8565b5b828202905092915050565b61119c80620002786000396000f3fe60806040526004361061009c5760003560e01c80638da5cb5b116100645780638da5cb5b146101885780638f449a05146101b3578063a7f43779146101bd578063ac6d0fa4146101d4578063b7b296e7146101ff578063bcf4c0e91461022a5761009c565b8063079ea165146100a157806312065fe0146100de5780633ccfd60b1461010957806359221a68146101205780637a94a6331461015d575b600080fd5b3480156100ad57600080fd5b506100c860048036038101906100c39190610c8f565b610255565b6040516100d59190610d32565b60405180910390f35b3480156100ea57600080fd5b506100f36102fb565b6040516101009190610d5c565b60405180910390f35b34801561011557600080fd5b5061011e610392565b005b34801561012c57600080fd5b5061014760048036038101906101429190610da3565b6104cf565b6040516101549190610ddf565b60405180910390f35b34801561016957600080fd5b5061017261050e565b60405161017f9190610d5c565b60405180910390f35b34801561019457600080fd5b5061019d610514565b6040516101aa9190610ddf565b60405180910390f35b6101bb610538565b005b3480156101c957600080fd5b506101d261081a565b005b3480156101e057600080fd5b506101e96108e1565b6040516101f69190610eb8565b60405180910390f35b34801561020b57600080fd5b506102146109fd565b6040516102219190610d5c565b60405180910390f35b34801561023657600080fd5b5061023f610a03565b60405161024c9190610d32565b60405180910390f35b61025d610c09565b60008054906101000a900473ffffffffffffffffffffffffffffffffffffffff1673ffffffffffffffffffffffffffffffffffffffff163373ffffffffffffffffffffffffffffffffffffffff16146102eb576040517f08c379a00000000000000000000000000000000000000000000000000000000081526004016102e290610f37565b60405180910390fd5b6102f482610a19565b9050919050565b60008060009054906101000a900473ffffffffffffffffffffffffffffffffffffffff1673ffffffffffffffffffffffffffffffffffffffff163373ffffffffffffffffffffffffffffffffffffffff161461038c576040517f08c379a000000000000000000000000000000000000000000000000000000000815260040161038390610f37565b60405180910390fd5b47905090565b60008054906101000a900473ffffffffffffffffffffffffffffffffffffffff1673ffffffffffffffffffffffffffffffffffffffff163373ffffffffffffffffffffffffffffffffffffffff1614610420576040517f08c379a000000000000000000000000000000000000000000000000000000000815260040161041790610f37565b60405180910390fd5b60003373ffffffffffffffffffffffffffffffffffffffff164760405161044690610f88565b60006040518083038185875af1925050503d8060008114610483576040519150601f19603f3d011682016040523d82523d6000602084013e610488565b606091505b50509050806104cc576040517f08c379a00000000000000000000000000000000000000000000000000000000081526004016104c390610fe9565b60405180910390fd5b50565b600381815481106104df57600080fd5b906000526020600020016000915054906101000a900473ffffffffffffffffffffffffffffffffffffffff1681565b60025481565b60008054906101000a900473ffffffffffffffffffffffffffffffffffffffff1681565b600154341461057c576040517f08c379a000000000000000000000000000000000000000000000000000000000815260040161057390611055565b60405180910390fd5b600033905060011515600460008373ffffffffffffffffffffffffffffffffffffffff1673ffffffffffffffffffffffffffffffffffffffff16815260200190815260200160002060000160009054906101000a900460ff16151514156106cb576105e681610ae3565b15610626576040517f08c379a000000000000000000000000000000000000000000000000000000000815260040161061d906110c1565b60405180910390fd5b34600460008373ffffffffffffffffffffffffffffffffffffffff1673ffffffffffffffffffffffffffffffffffffffff16815260200190815260200160002060010160008282546106789190611110565b9250508190555042600460008373ffffffffffffffffffffffffffffffffffffffff1673ffffffffffffffffffffffffffffffffffffffff168152602001908152602001600020600201819055506107c9565b6000604051806060016040528060011515815260200134815260200142815250905080600460008473ffffffffffffffffffffffffffffffffffffffff1673ffffffffffffffffffffffffffffffffffffffff16815260200190815260200160002060008201518160000160006101000a81548160ff02191690831515021790555060208201518160010155604082015181600201559050506003829080600181540180825580915050600190039060005260206000200160009091909190916101000a81548173ffffffffffffffffffffffffffffffffffffffff021916908373ffffffffffffffffffffffffffffffffffffffff160217905550505b8073ffffffffffffffffffffffffffffffffffffffff167feab17a384ff1450115976264ddf651de1856a5ff5b8c2c221345510563e466fe4260405161080f9190610d5c565b60405180910390a250565b60008054906101000a900473ffffffffffffffffffffffffffffffffffffffff1673ffffffffffffffffffffffffffffffffffffffff163373ffffffffffffffffffffffffffffffffffffffff16146108a8576040517f08c379a000000000000000000000000000000000000000000000000000000000815260040161089f90610f37565b60405180910390fd5b60008054906101000a900473ffffffffffffffffffffffffffffffffffffffff1673ffffffffffffffffffffffffffffffffffffffff16ff5b606060008054906101000a900473ffffffffffffffffffffffffffffffffffffffff1673ffffffffffffffffffffffffffffffffffffffff163373ffffffffffffffffffffffffffffffffffffffff1614610971576040517f08c379a000000000000000000000000000000000000000000000000000000000815260040161096890610f37565b60405180910390fd5b60038054806020026020016040519081016040528092919081815260200182805480156109f357602002820191906000526020600020905b8160009054906101000a900473ffffffffffffffffffffffffffffffffffffffff1673ffffffffffffffffffffffffffffffffffffffff16815260200190600101908083116109a9575b5050505050905090565b60015481565b610a0b610c09565b610a1433610a19565b905090565b610a21610c09565b6000610a2c83610ae3565b90506000600460008573ffffffffffffffffffffffffffffffffffffffff1673ffffffffffffffffffffffffffffffffffffffff1681526020019081526020016000206002015490506000600460008673ffffffffffffffffffffffffffffffffffffffff1673ffffffffffffffffffffffffffffffffffffffff16815260200190815260200160002060010154905060405180606001604052808415158152602001828152602001838152509350505050919050565b60008060009054906101000a900473ffffffffffffffffffffffffffffffffffffffff1673ffffffffffffffffffffffffffffffffffffffff168273ffffffffffffffffffffffffffffffffffffffff161415610b435760019050610c04565b600060011515600460008573ffffffffffffffffffffffffffffffffffffffff1673ffffffffffffffffffffffffffffffffffffffff16815260200190815260200160002060000160009054906101000a900460ff1615151490506000600254600460008673ffffffffffffffffffffffffffffffffffffffff1673ffffffffffffffffffffffffffffffffffffffff16815260200190815260200160002060020154610bf09190611110565b9050818015610bff5750804211155b925050505b919050565b604051806060016040528060001515815260200160008152602001600081525090565b600080fd5b600073ffffffffffffffffffffffffffffffffffffffff82169050919050565b6000610c5c82610c31565b9050919050565b610c6c81610c51565b8114610c7757600080fd5b50565b600081359050610c8981610c63565b92915050565b600060208284031215610ca557610ca4610c2c565b5b6000610cb384828501610c7a565b91505092915050565b60008115159050919050565b610cd181610cbc565b82525050565b6000819050919050565b610cea81610cd7565b82525050565b606082016000820151610d066000850182610cc8565b506020820151610d196020850182610ce1565b506040820151610d2c6040850182610ce1565b50505050565b6000606082019050610d476000830184610cf0565b92915050565b610d5681610cd7565b82525050565b6000602082019050610d716000830184610d4d565b92915050565b610d8081610cd7565b8114610d8b57600080fd5b50565b600081359050610d9d81610d77565b92915050565b600060208284031215610db957610db8610c2c565b5b6000610dc784828501610d8e565b91505092915050565b610dd981610c51565b82525050565b6000602082019050610df46000830184610dd0565b92915050565b600081519050919050565b600082825260208201905092915050565b6000819050602082019050919050565b610e2f81610c51565b82525050565b6000610e418383610e26565b60208301905092915050565b6000602082019050919050565b6000610e6582610dfa565b610e6f8185610e05565b9350610e7a83610e16565b8060005b83811015610eab578151610e928882610e35565b9750610e9d83610e4d565b925050600181019050610e7e565b5085935050505092915050565b60006020820190508181036000830152610ed28184610e5a565b905092915050565b600082825260208201905092915050565b7f4e6f74204f776e65720000000000000000000000000000000000000000000000600082015250565b6000610f21600983610eda565b9150610f2c82610eeb565b602082019050919050565b60006020820190508181036000830152610f5081610f14565b9050919050565b600081905092915050565b50565b6000610f72600083610f57565b9150610f7d82610f62565b600082019050919050565b6000610f9382610f65565b9150819050919050565b7f4661696c656420746f2073656e64204574686572000000000000000000000000600082015250565b6000610fd3601483610eda565b9150610fde82610f9d565b602082019050919050565b6000602082019050818103600083015261100281610fc6565b9050919050565b7f496e73756666696369656e742066756e64730000000000000000000000000000600082015250565b600061103f601283610eda565b915061104a82611009565b602082019050919050565b6000602082019050818103600083015261106e81611032565b9050919050565b7f537562736372697074696f6e206973207374696c6c2061637469766500000000600082015250565b60006110ab601c83610eda565b91506110b682611075565b602082019050919050565b600060208201905081810360008301526110da8161109e565b9050919050565b7f4e487b7100000000000000000000000000000000000000000000000000000000600052601160045260246000fd5b600061111b82610cd7565b915061112683610cd7565b9250827fffffffffffffffffffffffffffffffffffffffffffffffffffffffffffffffff0382111561115b5761115a6110e1565b5b82820190509291505056fea2646970667358221220248d7fa95400e691af3624e590a6ee9235c73a14cf33e64afc427bdee027c3b764736f6c634300080b0033",
  "immutableReferences": {},
  "source": "// SPDX-License-Identifier: GPL-3.0\r\npragma solidity ^0.8.10;\r\n\r\ncontract Subscription {\r\n    struct Subscriber {\r\n        bool subscribed;\r\n        uint256 payedAmount;\r\n        uint256 subscribedAt;\r\n    }\r\n\r\n    event SubscriptionSuccess(address indexed from, uint256 subscribedAt);\r\n\r\n    address public owner;\r\n    uint256 public subscriptionBaseValue;\r\n    uint256 public subscriptionDuration;\r\n    address[] public subscribers;\r\n    mapping(address => Subscriber) private subscribersList;\r\n\r\n    constructor(uint256 _baseValue, uint256 _durationInMinutes) {\r\n        subscriptionBaseValue = _baseValue;\r\n        subscriptionDuration = _durationInMinutes * 1 minutes;\r\n        owner = msg.sender;\r\n        subscribersList[owner] = Subscriber(true, 0, block.timestamp);\r\n    }\r\n\r\n    modifier onlyOwner() {\r\n        require(msg.sender == owner, \"Not Owner\");\r\n        _;\r\n    }\r\n\r\n    modifier exactAmount() {\r\n        require(msg.value == subscriptionBaseValue, \"Insufficient funds\");\r\n        _;\r\n    }\r\n\r\n    function isSubscriptionValid(address subscriberAddress) private view returns (bool) {\r\n        if( subscriberAddress == owner ) return true;\r\n        bool isSubscribed = subscribersList[subscriberAddress].subscribed == true;\r\n        uint256 limitDate = subscribersList[subscriberAddress].subscribedAt + subscriptionDuration;\r\n        return isSubscribed && block.timestamp <= limitDate;\r\n    }\r\n\r\n    function subscribe() external payable exactAmount {\r\n        address target = msg.sender;\r\n        if (subscribersList[target].subscribed == true) {\r\n            require(!isSubscriptionValid(target), \"Subscription is still active\");\r\n            subscribersList[target].payedAmount += msg.value;\r\n            subscribersList[target].subscribedAt = block.timestamp;\r\n        } else {\r\n            Subscriber memory newSubscriber = Subscriber(true, msg.value, block.timestamp);\r\n            subscribersList[target] = newSubscriber;\r\n            subscribers.push(target);\r\n        }\r\n        emit SubscriptionSuccess(target, block.timestamp);\r\n    }\r\n\r\n    function getSubscriberData(address subscriberAddress) private view returns (Subscriber memory data) {\r\n        bool isSubscribed = isSubscriptionValid(subscriberAddress);\r\n        uint256 at = subscribersList[subscriberAddress].subscribedAt;\r\n        uint256 payedAmount = subscribersList[subscriberAddress].payedAmount;\r\n        data = Subscriber(isSubscribed, payedAmount, at);\r\n        return data;\r\n    }\r\n\r\n    function getDataOfSubscriber(address subscriberAddress) external view onlyOwner returns (Subscriber memory data) {\r\n        return getSubscriberData(subscriberAddress);\r\n    }\r\n\r\n    function getSubscriptionData() external view returns (Subscriber memory data) {\r\n        return getSubscriberData(msg.sender);\r\n    }\r\n\r\n    function getAllSubscribers() public view onlyOwner returns (address[] memory) {\r\n        return subscribers;\r\n    }\r\n    \r\n    function getBalance() external view onlyOwner returns (uint256) {\r\n        return address(this).balance;\r\n    }\r\n\r\n    function remove() external onlyOwner {\r\n        selfdestruct(payable(owner));\r\n    }\r\n\r\n    function withdraw() external onlyOwner {\r\n        (bool sent, ) = msg.sender.call{value: address(this).balance}(\"\");\r\n        require(sent, \"Failed to send Ether\");\r\n    }\r\n\r\n}\r\n",
  "sourcePath": "C:\\dev\\contracts\\projects\\Subscription\\contracts\\Subscription.sol",
  "compiler": {
    "name": "solc",
    "version": "0.8.11+commit.d7f03943.Emscripten.clang"
  },
  "schemaVersion": "3.4.3",
  "updatedAt": "2021-12-26T21:15:20.536Z",
  "networkType": "ethereum",
  "devdoc": {
    "kind": "dev",
    "methods": {},
    "version": 1
  },
  "userdoc": {
    "kind": "user",
    "methods": {},
    "version": 1
  }
}