{
  "contractName": "Subscription",
  "abi": [
    {
      "inputs": [
        {
          "internalType": "uint256",
          "name": "_baseValue",
          "type": "uint256"
        },
        {
          "internalType": "uint256",
          "name": "_durationInMinutes",
          "type": "uint256"
        }
      ],
      "stateMutability": "nonpayable",
      "type": "constructor"
    },
    {
      "inputs": [],
      "name": "subscriptionBaseValue",
      "outputs": [
        {
          "internalType": "uint256",
          "name": "",
          "type": "uint256"
        }
      ],
      "stateMutability": "view",
      "type": "function",
      "constant": true
    },
    {
      "inputs": [],
      "name": "subscriptionDuration",
      "outputs": [
        {
          "internalType": "uint256",
          "name": "",
          "type": "uint256"
        }
      ],
      "stateMutability": "view",
      "type": "function",
      "constant": true
    },
    {
      "inputs": [],
      "name": "subscribe",
      "outputs": [],
      "stateMutability": "payable",
      "type": "function",
      "payable": true
    },
    {
      "inputs": [],
      "name": "getBalance",
      "outputs": [
        {
          "internalType": "uint256",
          "name": "",
          "type": "uint256"
        }
      ],
      "stateMutability": "view",
      "type": "function",
      "constant": true
    },
    {
      "inputs": [],
      "name": "amISubscribed",
      "outputs": [
        {
          "internalType": "bool",
          "name": "",
          "type": "bool"
        }
      ],
      "stateMutability": "nonpayable",
      "type": "function"
    },
    {
      "inputs": [],
      "name": "remove",
      "outputs": [],
      "stateMutability": "nonpayable",
      "type": "function"
    },
    {
      "inputs": [],
      "name": "withdraw",
      "outputs": [],
      "stateMutability": "nonpayable",
      "type": "function"
    }
  ],
  "bytecode": "0x608060405234801561001057600080fd5b5060405162000c0b38038062000c0b83398181016040528101906100349190610186565b81600181905550603c8161004891906101f5565b600281905550336000806101000a81548173ffffffffffffffffffffffffffffffffffffffff021916908373ffffffffffffffffffffffffffffffffffffffff16021790555060405180606001604052806001151581526020016000815260200142815250600360008060009054906101000a900473ffffffffffffffffffffffffffffffffffffffff1673ffffffffffffffffffffffffffffffffffffffff1673ffffffffffffffffffffffffffffffffffffffff16815260200190815260200160002060008201518160000160006101000a81548160ff0219169083151502179055506020820151816001015560408201518160020155905050505061024f565b600080fd5b6000819050919050565b61016381610150565b811461016e57600080fd5b50565b6000815190506101808161015a565b92915050565b6000806040838503121561019d5761019c61014b565b5b60006101ab85828601610171565b92505060206101bc85828601610171565b9150509250929050565b7f4e487b7100000000000000000000000000000000000000000000000000000000600052601160045260246000fd5b600061020082610150565b915061020b83610150565b9250817fffffffffffffffffffffffffffffffffffffffffffffffffffffffffffffffff0483118215151615610244576102436101c6565b5b828202905092915050565b6109ac806200025f6000396000f3fe6080604052600436106100705760003560e01c80637a94a6331161004e5780637a94a633146100e25780638f449a051461010d578063a7f4377914610117578063b7b296e71461012e57610070565b806312065fe01461007557806319d80219146100a05780633ccfd60b146100cb575b600080fd5b34801561008157600080fd5b5061008a610159565b6040516100979190610699565b60405180910390f35b3480156100ac57600080fd5b506100b56101f0565b6040516100c291906106cf565b60405180910390f35b3480156100d757600080fd5b506100e06102fa565b005b3480156100ee57600080fd5b506100f7610437565b6040516101049190610699565b60405180910390f35b61011561043d565b005b34801561012357600080fd5b5061012c6105b3565b005b34801561013a57600080fd5b5061014361067a565b6040516101509190610699565b60405180910390f35b60008060009054906101000a900473ffffffffffffffffffffffffffffffffffffffff1673ffffffffffffffffffffffffffffffffffffffff163373ffffffffffffffffffffffffffffffffffffffff16146101ea576040517f08c379a00000000000000000000000000000000000000000000000000000000081526004016101e190610747565b60405180910390fd5b47905090565b6000600254600360003373ffffffffffffffffffffffffffffffffffffffff1673ffffffffffffffffffffffffffffffffffffffff168152602001908152602001600020600201546102429190610796565b4211156102a5576000600360003373ffffffffffffffffffffffffffffffffffffffff1673ffffffffffffffffffffffffffffffffffffffff16815260200190815260200160002060000160006101000a81548160ff0219169083151502179055505b600360003373ffffffffffffffffffffffffffffffffffffffff1673ffffffffffffffffffffffffffffffffffffffff16815260200190815260200160002060000160009054906101000a900460ff16905090565b60008054906101000a900473ffffffffffffffffffffffffffffffffffffffff1673ffffffffffffffffffffffffffffffffffffffff163373ffffffffffffffffffffffffffffffffffffffff1614610388576040517f08c379a000000000000000000000000000000000000000000000000000000000815260040161037f90610747565b60405180910390fd5b60003373ffffffffffffffffffffffffffffffffffffffff16476040516103ae9061081d565b60006040518083038185875af1925050503d80600081146103eb576040519150601f19603f3d011682016040523d82523d6000602084013e6103f0565b606091505b5050905080610434576040517f08c379a000000000000000000000000000000000000000000000000000000000815260040161042b9061087e565b60405180910390fd5b50565b60025481565b60001515600360003373ffffffffffffffffffffffffffffffffffffffff1673ffffffffffffffffffffffffffffffffffffffff16815260200190815260200160002060000160009054906101000a900460ff161515146104d3576040517f08c379a00000000000000000000000000000000000000000000000000000000081526004016104ca906108ea565b60405180910390fd5b6001543414610517576040517f08c379a000000000000000000000000000000000000000000000000000000000815260040161050e90610956565b60405180910390fd5b6000604051806060016040528060011515815260200134815260200142815250905080600360003373ffffffffffffffffffffffffffffffffffffffff1673ffffffffffffffffffffffffffffffffffffffff16815260200190815260200160002060008201518160000160006101000a81548160ff021916908315150217905550602082015181600101556040820151816002015590505050565b60008054906101000a900473ffffffffffffffffffffffffffffffffffffffff1673ffffffffffffffffffffffffffffffffffffffff163373ffffffffffffffffffffffffffffffffffffffff1614610641576040517f08c379a000000000000000000000000000000000000000000000000000000000815260040161063890610747565b60405180910390fd5b60008054906101000a900473ffffffffffffffffffffffffffffffffffffffff1673ffffffffffffffffffffffffffffffffffffffff16ff5b60015481565b6000819050919050565b61069381610680565b82525050565b60006020820190506106ae600083018461068a565b92915050565b60008115159050919050565b6106c9816106b4565b82525050565b60006020820190506106e460008301846106c0565b92915050565b600082825260208201905092915050565b7f4e6f74204f776e65720000000000000000000000000000000000000000000000600082015250565b60006107316009836106ea565b915061073c826106fb565b602082019050919050565b6000602082019050818103600083015261076081610724565b9050919050565b7f4e487b7100000000000000000000000000000000000000000000000000000000600052601160045260246000fd5b60006107a182610680565b91506107ac83610680565b9250827fffffffffffffffffffffffffffffffffffffffffffffffffffffffffffffffff038211156107e1576107e0610767565b5b828201905092915050565b600081905092915050565b50565b60006108076000836107ec565b9150610812826107f7565b600082019050919050565b6000610828826107fa565b9150819050919050565b7f4661696c656420746f2073656e64204574686572000000000000000000000000600082015250565b60006108686014836106ea565b915061087382610832565b602082019050919050565b600060208201905081810360008301526108978161085b565b9050919050565b7f416c726561647920537562736372696265640000000000000000000000000000600082015250565b60006108d46012836106ea565b91506108df8261089e565b602082019050919050565b60006020820190508181036000830152610903816108c7565b9050919050565b7f496e73756666696369656e742066756e64730000000000000000000000000000600082015250565b60006109406012836106ea565b915061094b8261090a565b602082019050919050565b6000602082019050818103600083015261096f81610933565b905091905056fea2646970667358221220d555801391550032fc641be1a7c5690aadbd187b8af9135fec819ed6bf7f195664736f6c634300080a0033",
  "immutableReferences": {},
  "source": "// SPDX-License-Identifier: GPL-3.0\r\npragma solidity ^0.8.10;\r\n\r\ncontract Subscription {\r\n    struct Subscriber {\r\n        bool subscribed;\r\n        uint256 payedAmount;\r\n        uint256 subscribedAt;\r\n    }\r\n\r\n    address private owner;\r\n    uint256 public subscriptionBaseValue;\r\n    uint256 public subscriptionDuration;\r\n    mapping(address => Subscriber) private subscribersList;\r\n\r\n    constructor(uint256 _baseValue, uint256 _durationInMinutes) {\r\n        subscriptionBaseValue = _baseValue;\r\n        subscriptionDuration = _durationInMinutes * 1 minutes;\r\n        owner = msg.sender;\r\n        subscribersList[owner] = Subscriber(true, 0, block.timestamp);\r\n    }\r\n\r\n    modifier onlyOwner() {\r\n        require(msg.sender == owner, \"Not Owner\");\r\n        _;\r\n    }\r\n\r\n    modifier notSubscribed() {\r\n        require(\r\n            subscribersList[msg.sender].subscribed == false,\r\n            \"Already Subscribed\"\r\n        );\r\n        _;\r\n    }\r\n\r\n    function subscribe() external payable notSubscribed {\r\n        require(msg.value == subscriptionBaseValue, \"Insufficient funds\");\r\n        Subscriber memory newSubscriber = Subscriber(\r\n            true,\r\n            msg.value,\r\n            block.timestamp\r\n        );\r\n        subscribersList[msg.sender] = newSubscriber;\r\n        // return newSubscriber.subscribedAt; --> Should Fire an event here.\r\n    }\r\n\r\n    function getBalance() external view onlyOwner returns (uint256) {\r\n        return address(this).balance;\r\n    }\r\n\r\n    function amISubscribed() external returns (bool) {\r\n        if(block.timestamp > subscribersList[msg.sender].subscribedAt + subscriptionDuration) {\r\n            subscribersList[msg.sender].subscribed = false;\r\n        }\r\n        return subscribersList[msg.sender].subscribed;\r\n    }\r\n\r\n    function remove() external onlyOwner {\r\n        selfdestruct(payable(owner));\r\n    }\r\n\r\n    function withdraw() external onlyOwner {\r\n        (bool sent, ) = msg.sender.call{value: address(this).balance}(\"\");\r\n        require(sent, \"Failed to send Ether\");\r\n    }\r\n}\r\n",
  "sourcePath": "C:\\dev\\contracts\\projects\\Subscription\\contracts\\Subscription.sol",
  "compiler": {
    "name": "solc",
    "version": "0.8.10+commit.fc410830.Emscripten.clang"
  },
  "schemaVersion": "3.4.3",
  "updatedAt": "2021-12-04T22:21:38.378Z",
  "networkType": "ethereum",
  "devdoc": {
    "kind": "dev",
    "methods": {},
    "version": 1
  },
  "userdoc": {
    "kind": "user",
    "methods": {},
    "version": 1
  }
}