{
  "contractName": "Subscription",
  "abi": [
    {
      "inputs": [
        {
          "internalType": "uint256",
          "name": "_subscriptionBaseValue",
          "type": "uint256"
        }
      ],
      "stateMutability": "nonpayable",
      "type": "constructor"
    },
    {
      "inputs": [],
      "name": "subscriptionBaseValue",
      "outputs": [
        {
          "internalType": "uint256",
          "name": "",
          "type": "uint256"
        }
      ],
      "stateMutability": "view",
      "type": "function",
      "constant": true
    },
    {
      "inputs": [],
      "name": "subscribe",
      "outputs": [
        {
          "internalType": "uint256",
          "name": "",
          "type": "uint256"
        }
      ],
      "stateMutability": "payable",
      "type": "function",
      "payable": true
    },
    {
      "inputs": [],
      "name": "getBalance",
      "outputs": [
        {
          "internalType": "uint256",
          "name": "",
          "type": "uint256"
        }
      ],
      "stateMutability": "view",
      "type": "function",
      "constant": true
    },
    {
      "inputs": [],
      "name": "withdraw",
      "outputs": [],
      "stateMutability": "nonpayable",
      "type": "function"
    },
    {
      "inputs": [],
      "name": "remove",
      "outputs": [],
      "stateMutability": "nonpayable",
      "type": "function"
    }
  ],
  "bytecode": "0x608060405234801561001057600080fd5b5060405161067d38038061067d83398181016040528101906100329190610170565b80600181905550336000806101000a81548173ffffffffffffffffffffffffffffffffffffffff021916908373ffffffffffffffffffffffffffffffffffffffff16021790555060405180606001604052806001151581526020016000815260200142815250600260008060009054906101000a900473ffffffffffffffffffffffffffffffffffffffff1673ffffffffffffffffffffffffffffffffffffffff1673ffffffffffffffffffffffffffffffffffffffff16815260200190815260200160002060008201518160000160006101000a81548160ff02191690831515021790555060208201518160010155604082015181600201559050505061019d565b600080fd5b6000819050919050565b61014d8161013a565b811461015857600080fd5b50565b60008151905061016a81610144565b92915050565b60006020828403121561018657610185610135565b5b60006101948482850161015b565b91505092915050565b6104d1806101ac6000396000f3fe60806040526004361061004a5760003560e01c806312065fe01461004f5780633ccfd60b1461007a5780638f449a0514610091578063a7f43779146100af578063b7b296e7146100c6575b600080fd5b34801561005b57600080fd5b506100646100f1565b60405161007191906103bd565b60405180910390f35b34801561008657600080fd5b5061008f610152565b005b610099610259565b6040516100a691906103bd565b60405180910390f35b3480156100bb57600080fd5b506100c461030d565b005b3480156100d257600080fd5b506100db61039e565b6040516100e891906103bd565b60405180910390f35b60008060009054906101000a900473ffffffffffffffffffffffffffffffffffffffff1673ffffffffffffffffffffffffffffffffffffffff163373ffffffffffffffffffffffffffffffffffffffff161461014c57600080fd5b47905090565b60008054906101000a900473ffffffffffffffffffffffffffffffffffffffff1673ffffffffffffffffffffffffffffffffffffffff163373ffffffffffffffffffffffffffffffffffffffff16146101aa57600080fd5b60003373ffffffffffffffffffffffffffffffffffffffff16476040516101d090610409565b60006040518083038185875af1925050503d806000811461020d576040519150601f19603f3d011682016040523d82523d6000602084013e610212565b606091505b5050905080610256576040517f08c379a000000000000000000000000000000000000000000000000000000000815260040161024d9061047b565b60405180910390fd5b50565b6000600154341461026957600080fd5b6000604051806060016040528060011515815260200134815260200142815250905080600260003373ffffffffffffffffffffffffffffffffffffffff1673ffffffffffffffffffffffffffffffffffffffff16815260200190815260200160002060008201518160000160006101000a81548160ff0219169083151502179055506020820151816001015560408201518160020155905050806040015191505090565b60008054906101000a900473ffffffffffffffffffffffffffffffffffffffff1673ffffffffffffffffffffffffffffffffffffffff163373ffffffffffffffffffffffffffffffffffffffff161461036557600080fd5b60008054906101000a900473ffffffffffffffffffffffffffffffffffffffff1673ffffffffffffffffffffffffffffffffffffffff16ff5b60015481565b6000819050919050565b6103b7816103a4565b82525050565b60006020820190506103d260008301846103ae565b92915050565b600081905092915050565b50565b60006103f36000836103d8565b91506103fe826103e3565b600082019050919050565b6000610414826103e6565b9150819050919050565b600082825260208201905092915050565b7f4661696c656420746f2073656e64204574686572000000000000000000000000600082015250565b600061046560148361041e565b91506104708261042f565b602082019050919050565b6000602082019050818103600083015261049481610458565b905091905056fea2646970667358221220e7b78866ea8fd0c764b2b7c98ca5abe471b8d9d171b9911fc14d12818e45922464736f6c634300080a0033",
  "immutableReferences": {},
  "source": "// SPDX-License-Identifier: GPL-3.0\r\npragma solidity ^0.8.10;\r\n\r\ncontract Subscription {\r\n    struct Subscriber {\r\n        bool subscribed;\r\n        uint256 payedAmount;\r\n        uint256 subscribedAt;\r\n    }\r\n    \r\n    address private owner;\r\n    uint256 public subscriptionBaseValue;\r\n    mapping(address => Subscriber) subscribersList;\r\n    \r\n    constructor(uint256 _subscriptionBaseValue) {\r\n        subscriptionBaseValue = _subscriptionBaseValue;\r\n        owner = msg.sender;\r\n        subscribersList[owner] = Subscriber(true, 0, block.timestamp);\r\n    }\r\n    \r\n    function subscribe() external payable returns (uint256) {\r\n        require(msg.value == subscriptionBaseValue);\r\n        Subscriber memory newSubscriber = Subscriber(true, msg.value, block.timestamp);\r\n        subscribersList[msg.sender] = newSubscriber;\r\n        return newSubscriber.subscribedAt;\r\n    }\r\n    \r\n    function getBalance() external view returns (uint256) {\r\n        require(msg.sender == owner);\r\n        return address(this).balance;\r\n    }\r\n    \r\n    function withdraw() external {\r\n        require(msg.sender == owner);\r\n        (bool sent, ) = msg.sender.call{value: address(this).balance}(\"\");\r\n        require(sent, \"Failed to send Ether\");\r\n    }\r\n    \r\n    function remove() external {\r\n        require(msg.sender == owner);\r\n        selfdestruct(payable(owner));\r\n    }\r\n}",
  "sourcePath": "C:\\dev\\contracts\\projects\\Subscription\\contracts\\Subscription.sol",
  "compiler": {
    "name": "solc",
    "version": "0.8.10+commit.fc410830.Emscripten.clang"
  },
  "schemaVersion": "3.4.3",
  "updatedAt": "2021-11-27T02:42:53.210Z",
  "networkType": "ethereum",
  "devdoc": {
    "kind": "dev",
    "methods": {},
    "version": 1
  },
  "userdoc": {
    "kind": "user",
    "methods": {},
    "version": 1
  }
}