{
  "contractName": "Subscription",
  "abi": [
    {
      "inputs": [
        {
          "internalType": "uint256",
          "name": "_baseValue",
          "type": "uint256"
        },
        {
          "internalType": "uint256",
          "name": "_durationInMinutes",
          "type": "uint256"
        }
      ],
      "stateMutability": "nonpayable",
      "type": "constructor"
    },
    {
      "anonymous": false,
      "inputs": [
        {
          "indexed": true,
          "internalType": "address",
          "name": "from",
          "type": "address"
        },
        {
          "indexed": false,
          "internalType": "uint256",
          "name": "subscribedAt",
          "type": "uint256"
        }
      ],
      "name": "SubscriptionSuccess",
      "type": "event"
    },
    {
      "inputs": [],
      "name": "owner",
      "outputs": [
        {
          "internalType": "address",
          "name": "",
          "type": "address"
        }
      ],
      "stateMutability": "view",
      "type": "function",
      "constant": true
    },
    {
      "inputs": [],
      "name": "subscriptionBaseValue",
      "outputs": [
        {
          "internalType": "uint256",
          "name": "",
          "type": "uint256"
        }
      ],
      "stateMutability": "view",
      "type": "function",
      "constant": true
    },
    {
      "inputs": [],
      "name": "subscriptionDuration",
      "outputs": [
        {
          "internalType": "uint256",
          "name": "",
          "type": "uint256"
        }
      ],
      "stateMutability": "view",
      "type": "function",
      "constant": true
    },
    {
      "inputs": [],
      "name": "isSubscriptionValid",
      "outputs": [
        {
          "internalType": "bool",
          "name": "",
          "type": "bool"
        }
      ],
      "stateMutability": "view",
      "type": "function",
      "constant": true
    },
    {
      "inputs": [],
      "name": "subscribe",
      "outputs": [],
      "stateMutability": "payable",
      "type": "function",
      "payable": true
    },
    {
      "inputs": [],
      "name": "getBalance",
      "outputs": [
        {
          "internalType": "uint256",
          "name": "",
          "type": "uint256"
        }
      ],
      "stateMutability": "view",
      "type": "function",
      "constant": true
    },
    {
      "inputs": [],
      "name": "getSubscriberData",
      "outputs": [
        {
          "components": [
            {
              "internalType": "bool",
              "name": "subscribed",
              "type": "bool"
            },
            {
              "internalType": "uint256",
              "name": "payedAmount",
              "type": "uint256"
            },
            {
              "internalType": "uint256",
              "name": "subscribedAt",
              "type": "uint256"
            }
          ],
          "internalType": "struct Subscription.Subscriber",
          "name": "data",
          "type": "tuple"
        }
      ],
      "stateMutability": "view",
      "type": "function",
      "constant": true
    },
    {
      "inputs": [],
      "name": "remove",
      "outputs": [],
      "stateMutability": "nonpayable",
      "type": "function"
    },
    {
      "inputs": [],
      "name": "withdraw",
      "outputs": [],
      "stateMutability": "nonpayable",
      "type": "function"
    }
  ],
  "bytecode": "0x60806040523480156200001157600080fd5b5060405162000f3138038062000f31833981810160405281019062000037919062000191565b81600181905550603c816200004d919062000207565b600281905550336000806101000a81548173ffffffffffffffffffffffffffffffffffffffff021916908373ffffffffffffffffffffffffffffffffffffffff16021790555060405180606001604052806001151581526020016000815260200142815250600360008060009054906101000a900473ffffffffffffffffffffffffffffffffffffffff1673ffffffffffffffffffffffffffffffffffffffff1673ffffffffffffffffffffffffffffffffffffffff16815260200190815260200160002060008201518160000160006101000a81548160ff0219169083151502179055506020820151816001015560408201518160020155905050505062000268565b600080fd5b6000819050919050565b6200016b8162000156565b81146200017757600080fd5b50565b6000815190506200018b8162000160565b92915050565b60008060408385031215620001ab57620001aa62000151565b5b6000620001bb858286016200017a565b9250506020620001ce858286016200017a565b9150509250929050565b7f4e487b7100000000000000000000000000000000000000000000000000000000600052601160045260246000fd5b6000620002148262000156565b9150620002218362000156565b9250817fffffffffffffffffffffffffffffffffffffffffffffffffffffffffffffffff04831182151516156200025d576200025c620001d8565b5b828202905092915050565b610cb980620002786000396000f3fe6080604052600436106100865760003560e01c80638da5cb5b116100595780638da5cb5b146101235780638f449a051461014e578063a7f4377914610158578063b7b296e71461016f578063e93bc0f81461019a57610086565b806312065fe01461008b5780633ccfd60b146100b657806366417788146100cd5780637a94a633146100f8575b600080fd5b34801561009757600080fd5b506100a06101c5565b6040516100ad91906108cf565b60405180910390f35b3480156100c257600080fd5b506100cb61025c565b005b3480156100d957600080fd5b506100e2610399565b6040516100ef9190610905565b60405180910390f35b34801561010457600080fd5b5061010d61045d565b60405161011a91906108cf565b60405180910390f35b34801561012f57600080fd5b50610138610463565b6040516101459190610961565b60405180910390f35b610156610487565b005b34801561016457600080fd5b5061016d6106ff565b005b34801561017b57600080fd5b506101846107c6565b60405161019191906108cf565b60405180910390f35b3480156101a657600080fd5b506101af6107cc565b6040516101bc91906109dc565b60405180910390f35b60008060009054906101000a900473ffffffffffffffffffffffffffffffffffffffff1673ffffffffffffffffffffffffffffffffffffffff163373ffffffffffffffffffffffffffffffffffffffff1614610256576040517f08c379a000000000000000000000000000000000000000000000000000000000815260040161024d90610a54565b60405180910390fd5b47905090565b60008054906101000a900473ffffffffffffffffffffffffffffffffffffffff1673ffffffffffffffffffffffffffffffffffffffff163373ffffffffffffffffffffffffffffffffffffffff16146102ea576040517f08c379a00000000000000000000000000000000000000000000000000000000081526004016102e190610a54565b60405180910390fd5b60003373ffffffffffffffffffffffffffffffffffffffff164760405161031090610aa5565b60006040518083038185875af1925050503d806000811461034d576040519150601f19603f3d011682016040523d82523d6000602084013e610352565b606091505b5050905080610396576040517f08c379a000000000000000000000000000000000000000000000000000000000815260040161038d90610b06565b60405180910390fd5b50565b60008060011515600360003373ffffffffffffffffffffffffffffffffffffffff1673ffffffffffffffffffffffffffffffffffffffff16815260200190815260200160002060000160009054906101000a900460ff1615151490506000600254600360003373ffffffffffffffffffffffffffffffffffffffff1673ffffffffffffffffffffffffffffffffffffffff168152602001908152602001600020600201546104479190610b55565b90508180156104565750804211155b9250505090565b60025481565b60008054906101000a900473ffffffffffffffffffffffffffffffffffffffff1681565b60015434146104cb576040517f08c379a00000000000000000000000000000000000000000000000000000000081526004016104c290610bf7565b60405180910390fd5b60011515600360003373ffffffffffffffffffffffffffffffffffffffff1673ffffffffffffffffffffffffffffffffffffffff16815260200190815260200160002060000160009054906101000a900460ff16151514156106145761052f610399565b1561056f576040517f08c379a000000000000000000000000000000000000000000000000000000000815260040161056690610c63565b60405180910390fd5b34600360003373ffffffffffffffffffffffffffffffffffffffff1673ffffffffffffffffffffffffffffffffffffffff16815260200190815260200160002060010160008282546105c19190610b55565b9250508190555042600360003373ffffffffffffffffffffffffffffffffffffffff1673ffffffffffffffffffffffffffffffffffffffff168152602001908152602001600020600201819055506106af565b6000604051806060016040528060011515815260200134815260200142815250905080600360003373ffffffffffffffffffffffffffffffffffffffff1673ffffffffffffffffffffffffffffffffffffffff16815260200190815260200160002060008201518160000160006101000a81548160ff0219169083151502179055506020820151816001015560408201518160020155905050505b3373ffffffffffffffffffffffffffffffffffffffff167feab17a384ff1450115976264ddf651de1856a5ff5b8c2c221345510563e466fe426040516106f591906108cf565b60405180910390a2565b60008054906101000a900473ffffffffffffffffffffffffffffffffffffffff1673ffffffffffffffffffffffffffffffffffffffff163373ffffffffffffffffffffffffffffffffffffffff161461078d576040517f08c379a000000000000000000000000000000000000000000000000000000000815260040161078490610a54565b60405180910390fd5b60008054906101000a900473ffffffffffffffffffffffffffffffffffffffff1673ffffffffffffffffffffffffffffffffffffffff16ff5b60015481565b6107d4610893565b60006107de610399565b90506000600360003373ffffffffffffffffffffffffffffffffffffffff1673ffffffffffffffffffffffffffffffffffffffff1681526020019081526020016000206002015490506000600360003373ffffffffffffffffffffffffffffffffffffffff1673ffffffffffffffffffffffffffffffffffffffff1681526020019081526020016000206001015490506040518060600160405280841515815260200182815260200183815250935050505090565b604051806060016040528060001515815260200160008152602001600081525090565b6000819050919050565b6108c9816108b6565b82525050565b60006020820190506108e460008301846108c0565b92915050565b60008115159050919050565b6108ff816108ea565b82525050565b600060208201905061091a60008301846108f6565b92915050565b600073ffffffffffffffffffffffffffffffffffffffff82169050919050565b600061094b82610920565b9050919050565b61095b81610940565b82525050565b60006020820190506109766000830184610952565b92915050565b610985816108ea565b82525050565b610994816108b6565b82525050565b6060820160008201516109b0600085018261097c565b5060208201516109c3602085018261098b565b5060408201516109d6604085018261098b565b50505050565b60006060820190506109f1600083018461099a565b92915050565b600082825260208201905092915050565b7f4e6f74204f776e65720000000000000000000000000000000000000000000000600082015250565b6000610a3e6009836109f7565b9150610a4982610a08565b602082019050919050565b60006020820190508181036000830152610a6d81610a31565b9050919050565b600081905092915050565b50565b6000610a8f600083610a74565b9150610a9a82610a7f565b600082019050919050565b6000610ab082610a82565b9150819050919050565b7f4661696c656420746f2073656e64204574686572000000000000000000000000600082015250565b6000610af06014836109f7565b9150610afb82610aba565b602082019050919050565b60006020820190508181036000830152610b1f81610ae3565b9050919050565b7f4e487b7100000000000000000000000000000000000000000000000000000000600052601160045260246000fd5b6000610b60826108b6565b9150610b6b836108b6565b9250827fffffffffffffffffffffffffffffffffffffffffffffffffffffffffffffffff03821115610ba057610b9f610b26565b5b828201905092915050565b7f496e73756666696369656e742066756e64730000000000000000000000000000600082015250565b6000610be16012836109f7565b9150610bec82610bab565b602082019050919050565b60006020820190508181036000830152610c1081610bd4565b9050919050565b7f537562736372697074696f6e206973207374696c6c2061637469766500000000600082015250565b6000610c4d601c836109f7565b9150610c5882610c17565b602082019050919050565b60006020820190508181036000830152610c7c81610c40565b905091905056fea264697066735822122006cc639fd0ac3e5e730e2ff853acd7451dda34754834fce75acca07ddeb3283664736f6c634300080a0033",
  "immutableReferences": {},
  "source": "// SPDX-License-Identifier: GPL-3.0\r\npragma solidity ^0.8.10;\r\n\r\ncontract Subscription {\r\n    struct Subscriber {\r\n        bool subscribed;\r\n        uint256 payedAmount;\r\n        uint256 subscribedAt;\r\n    }\r\n\r\n    event SubscriptionSuccess(address indexed from, uint256 subscribedAt);\r\n\r\n    address public owner;\r\n    uint256 public subscriptionBaseValue;\r\n    uint256 public subscriptionDuration;\r\n    mapping(address => Subscriber) private subscribersList;\r\n\r\n    constructor(uint256 _baseValue, uint256 _durationInMinutes) {\r\n        subscriptionBaseValue = _baseValue;\r\n        subscriptionDuration = _durationInMinutes * 1 minutes;\r\n        owner = msg.sender;\r\n        subscribersList[owner] = Subscriber(true, 0, block.timestamp);\r\n    }\r\n\r\n    modifier onlyOwner() {\r\n        require(msg.sender == owner, \"Not Owner\");\r\n        _;\r\n    }\r\n\r\n    modifier exactAmount() {\r\n        require(msg.value == subscriptionBaseValue, \"Insufficient funds\");\r\n        _;\r\n    }\r\n\r\n    function isSubscriptionValid() public view returns (bool) {\r\n        bool isSubscribed = subscribersList[msg.sender].subscribed == true;\r\n        uint256 limitDate = subscribersList[msg.sender].subscribedAt + subscriptionDuration;\r\n        return isSubscribed && block.timestamp <= limitDate;\r\n    }\r\n\r\n    function subscribe() external payable exactAmount {\r\n        if (subscribersList[msg.sender].subscribed == true) {\r\n            require(!isSubscriptionValid(), \"Subscription is still active\");\r\n            subscribersList[msg.sender].payedAmount += msg.value;\r\n            subscribersList[msg.sender].subscribedAt = block.timestamp;\r\n        } else {\r\n            Subscriber memory newSubscriber = Subscriber(true, msg.value, block.timestamp);\r\n            subscribersList[msg.sender] = newSubscriber;\r\n        }\r\n        emit SubscriptionSuccess(msg.sender, block.timestamp);\r\n    }\r\n\r\n    function getBalance() external view onlyOwner returns (uint256) {\r\n        return address(this).balance;\r\n    }\r\n\r\n    function getSubscriberData() external view returns (Subscriber memory data) {\r\n        bool isSubscribed = isSubscriptionValid();\r\n        uint256 at = subscribersList[msg.sender].subscribedAt;\r\n        uint256 payedAmount = subscribersList[msg.sender].payedAmount;\r\n        data = Subscriber(isSubscribed, payedAmount, at);\r\n        return data;\r\n    }\r\n\r\n    function remove() external onlyOwner {\r\n        selfdestruct(payable(owner));\r\n    }\r\n\r\n    function withdraw() external onlyOwner {\r\n        (bool sent, ) = msg.sender.call{value: address(this).balance}(\"\");\r\n        require(sent, \"Failed to send Ether\");\r\n    }\r\n}\r\n",
  "sourcePath": "C:\\dev\\contracts\\projects\\Subscription\\contracts\\Subscription.sol",
  "compiler": {
    "name": "solc",
    "version": "0.8.10+commit.fc410830.Emscripten.clang"
  },
  "schemaVersion": "3.4.3",
  "updatedAt": "2021-12-16T00:00:16.953Z",
  "networkType": "ethereum",
  "devdoc": {
    "kind": "dev",
    "methods": {},
    "version": 1
  },
  "userdoc": {
    "kind": "user",
    "methods": {},
    "version": 1
  }
}