{
  "contractName": "Subscription",
  "abi": [
    {
      "inputs": [
        {
          "internalType": "uint256",
          "name": "_subscriptionBaseValue",
          "type": "uint256"
        }
      ],
      "stateMutability": "nonpayable",
      "type": "constructor"
    },
    {
      "inputs": [],
      "name": "subscriptionBaseValue",
      "outputs": [
        {
          "internalType": "uint256",
          "name": "",
          "type": "uint256"
        }
      ],
      "stateMutability": "view",
      "type": "function",
      "constant": true
    },
    {
      "inputs": [],
      "name": "subscribe",
      "outputs": [],
      "stateMutability": "payable",
      "type": "function",
      "payable": true
    },
    {
      "inputs": [],
      "name": "getBalance",
      "outputs": [
        {
          "internalType": "uint256",
          "name": "",
          "type": "uint256"
        }
      ],
      "stateMutability": "view",
      "type": "function",
      "constant": true
    },
    {
      "inputs": [],
      "name": "withdraw",
      "outputs": [],
      "stateMutability": "nonpayable",
      "type": "function"
    },
    {
      "inputs": [],
      "name": "remove",
      "outputs": [],
      "stateMutability": "nonpayable",
      "type": "function"
    }
  ],
  "bytecode": "0x608060405234801561001057600080fd5b5060405161091138038061091183398181016040528101906100329190610170565b80600181905550336000806101000a81548173ffffffffffffffffffffffffffffffffffffffff021916908373ffffffffffffffffffffffffffffffffffffffff16021790555060405180606001604052806001151581526020016000815260200142815250600260008060009054906101000a900473ffffffffffffffffffffffffffffffffffffffff1673ffffffffffffffffffffffffffffffffffffffff1673ffffffffffffffffffffffffffffffffffffffff16815260200190815260200160002060008201518160000160006101000a81548160ff02191690831515021790555060208201518160010155604082015181600201559050505061019d565b600080fd5b6000819050919050565b61014d8161013a565b811461015857600080fd5b50565b60008151905061016a81610144565b92915050565b60006020828403121561018657610185610135565b5b60006101948482850161015b565b91505092915050565b610765806101ac6000396000f3fe60806040526004361061004a5760003560e01c806312065fe01461004f5780633ccfd60b1461007a5780638f449a0514610091578063a7f437791461009b578063b7b296e7146100b2575b600080fd5b34801561005b57600080fd5b506100646100dd565b604051610071919061050d565b60405180910390f35b34801561008657600080fd5b5061008f610174565b005b6100996102b1565b005b3480156100a757600080fd5b506100b0610427565b005b3480156100be57600080fd5b506100c76104ee565b6040516100d4919061050d565b60405180910390f35b60008060009054906101000a900473ffffffffffffffffffffffffffffffffffffffff1673ffffffffffffffffffffffffffffffffffffffff163373ffffffffffffffffffffffffffffffffffffffff161461016e576040517f08c379a000000000000000000000000000000000000000000000000000000000815260040161016590610585565b60405180910390fd5b47905090565b60008054906101000a900473ffffffffffffffffffffffffffffffffffffffff1673ffffffffffffffffffffffffffffffffffffffff163373ffffffffffffffffffffffffffffffffffffffff1614610202576040517f08c379a00000000000000000000000000000000000000000000000000000000081526004016101f990610585565b60405180910390fd5b60003373ffffffffffffffffffffffffffffffffffffffff1647604051610228906105d6565b60006040518083038185875af1925050503d8060008114610265576040519150601f19603f3d011682016040523d82523d6000602084013e61026a565b606091505b50509050806102ae576040517f08c379a00000000000000000000000000000000000000000000000000000000081526004016102a590610637565b60405180910390fd5b50565b60001515600260003373ffffffffffffffffffffffffffffffffffffffff1673ffffffffffffffffffffffffffffffffffffffff16815260200190815260200160002060000160009054906101000a900460ff16151514610347576040517f08c379a000000000000000000000000000000000000000000000000000000000815260040161033e906106a3565b60405180910390fd5b600154341461038b576040517f08c379a00000000000000000000000000000000000000000000000000000000081526004016103829061070f565b60405180910390fd5b6000604051806060016040528060011515815260200134815260200142815250905080600260003373ffffffffffffffffffffffffffffffffffffffff1673ffffffffffffffffffffffffffffffffffffffff16815260200190815260200160002060008201518160000160006101000a81548160ff021916908315150217905550602082015181600101556040820151816002015590505050565b60008054906101000a900473ffffffffffffffffffffffffffffffffffffffff1673ffffffffffffffffffffffffffffffffffffffff163373ffffffffffffffffffffffffffffffffffffffff16146104b5576040517f08c379a00000000000000000000000000000000000000000000000000000000081526004016104ac90610585565b60405180910390fd5b60008054906101000a900473ffffffffffffffffffffffffffffffffffffffff1673ffffffffffffffffffffffffffffffffffffffff16ff5b60015481565b6000819050919050565b610507816104f4565b82525050565b600060208201905061052260008301846104fe565b92915050565b600082825260208201905092915050565b7f4e6f74204f776e65720000000000000000000000000000000000000000000000600082015250565b600061056f600983610528565b915061057a82610539565b602082019050919050565b6000602082019050818103600083015261059e81610562565b9050919050565b600081905092915050565b50565b60006105c06000836105a5565b91506105cb826105b0565b600082019050919050565b60006105e1826105b3565b9150819050919050565b7f4661696c656420746f2073656e64204574686572000000000000000000000000600082015250565b6000610621601483610528565b915061062c826105eb565b602082019050919050565b6000602082019050818103600083015261065081610614565b9050919050565b7f416c726561647920537562736372696265640000000000000000000000000000600082015250565b600061068d601283610528565b915061069882610657565b602082019050919050565b600060208201905081810360008301526106bc81610680565b9050919050565b7f496e73756666696369656e742066756e64730000000000000000000000000000600082015250565b60006106f9601283610528565b9150610704826106c3565b602082019050919050565b60006020820190508181036000830152610728816106ec565b905091905056fea2646970667358221220835ccd113bbf87ebeea726e169b22351ebb514a711105e5c070e30ad0e96dab964736f6c634300080a0033",
  "immutableReferences": {},
  "source": "// SPDX-License-Identifier: GPL-3.0\r\npragma solidity ^0.8.10;\r\n\r\ncontract Subscription {\r\n    struct Subscriber {\r\n        bool subscribed;\r\n        uint256 payedAmount;\r\n        uint256 subscribedAt;\r\n    }\r\n\r\n    address private owner;\r\n    uint256 public subscriptionBaseValue;\r\n    mapping(address => Subscriber) private subscribersList;\r\n\r\n    constructor(uint256 _subscriptionBaseValue) {\r\n        subscriptionBaseValue = _subscriptionBaseValue;\r\n        owner = msg.sender;\r\n        subscribersList[owner] = Subscriber(true, 0, block.timestamp);\r\n    }\r\n\r\n    function subscribe() external payable {\r\n        require(\r\n            subscribersList[msg.sender].subscribed == false,\r\n            \"Already Subscribed\"\r\n        );\r\n        require(msg.value == subscriptionBaseValue, \"Insufficient funds\");\r\n        Subscriber memory newSubscriber = Subscriber(\r\n            true,\r\n            msg.value,\r\n            block.timestamp\r\n        );\r\n        subscribersList[msg.sender] = newSubscriber;\r\n        // return newSubscriber.subscribedAt; --> Should Fire an event here.\r\n    }\r\n\r\n    function getBalance() external view returns (uint256) {\r\n        require(msg.sender == owner, \"Not Owner\");\r\n        return address(this).balance;\r\n    }\r\n\r\n    function withdraw() external {\r\n        require(msg.sender == owner, \"Not Owner\");\r\n        (bool sent, ) = msg.sender.call{value: address(this).balance}(\"\");\r\n        require(sent, \"Failed to send Ether\");\r\n    }\r\n\r\n    function remove() external {\r\n        require(msg.sender == owner, \"Not Owner\");\r\n        selfdestruct(payable(owner));\r\n    }\r\n}\r\n",
  "sourcePath": "C:\\dev\\contracts\\projects\\Subscription\\contracts\\Subscription.sol",
  "compiler": {
    "name": "solc",
    "version": "0.8.10+commit.fc410830.Emscripten.clang"
  },
  "schemaVersion": "3.4.3",
  "updatedAt": "2021-12-04T17:08:23.422Z",
  "networkType": "ethereum",
  "devdoc": {
    "kind": "dev",
    "methods": {},
    "version": 1
  },
  "userdoc": {
    "kind": "user",
    "methods": {},
    "version": 1
  }
}